:020000040800F2
:100000000028002029170008B9160008BF160008AC
:10001000C5160008CB160008D11600080000000025
:10002000000000000000000000000000D7160008DB
:10003000E316000800000000EF160008FB16000899
:100040007117000871170008711700087117000870
:100050007117000871170008711700087117000860
:100060007117000871170008711700087117000850
:100070007117000871170008711700087117000840
:100080007117000871170008711700087117000830
:100090007117000871170008711700087117000820
:1000A0007117000871170008711700087117000810
:1000B00009170008711700080000000071170008F8
:1000C0007117000800000000000000007117000810
:1000D0000000000071170008711700080000000000
:1000E0007117000871170008711700080000000060
:1000F0000000000000000000000000000000000000
:0C01000000000000000000005FF808F1A3
:10010C0010B5054C237833B9044B13B10448AFF345
:10011C0000800123237010BD90000020000000001F
:10012C00A02D000808B5034B1BB103490348AFF3DE
:10013C00008008BD0000000094000020A02D0008E5
:10014C0080B483B000AF7860094A7B6852F82330E2
:10015C00002B06D0064A7B68002142F823100123AD
:10016C0000E0002318460C37BD4680BC704700BF2A
:10017C00AC00002080B584B000AF0023FB60A1E090
:10018C00554AFB6852F823205449FB6841F8232058
:10019C00534AFB6852F823204F49FB6841F823204F
:1001AC00504AFB6852F823204F49FB6831F8133052
:1001BC001946104601F0C2FD03461946484AFB6831
:1001CC0042F82310464AFB6852F823204249FB6848
:1001DC0051F823309A4272D13F4AFB6852F82320DF
:1001EC003E49FB6851F823309A4268D13F4AFB687C
:1001FC0052F823203949FB6851F823309A423FD0FA
:10020C00364AFB6852F823203849FB6841F8232012
:10021C00364AFB6852F82330002B50D1344AFB6825
:10022C00642142F82310334AFB68012142F8231061
:10023C0001F0F2FA78603049FB687A6841F82320C3
:10024C000023BB6018E0BA68FB689A4211D02A4AB6
:10025C00BB6852F823307A68D31AB3F57A7F08D882
:10026C00264B01221A60264ABB681360244AFB689D
:10027C005360BB680133BB60BB68022BE3DD1EE03F
:10028C001B4AFB6852F823305A1E1949FB6841F887
:10029C002320174AFB6852F82330002B0FD1144A45
:1002AC00FB68642142F82310104AFB6852F8233093
:1002BC00002B04D10F4AFB68012142F82310FB6884
:1002CC000133FB60FB68022B7FF75AAF00BF00BF06
:1002DC001037BD4680BD00BF0C0000201800002068
:1002EC0000000020440000205000002024000020CA
:1002FC0030000020AC000020B8000020C40000201A
:10030C003C00002080B400AF064B1B68002B04D0CF
:10031C00044B00221A60012300E000231846BD465E
:10032C0080BC7047C400002080B500AF944B1B68A4
:10033C00042B00F2948101A252F823F05D03000813
:10034C008703000831040008E3040008AD05000829
:10035C008B4B01221A60FA21002001F0E5F84FF4D2
:10036C007A71012001F0E0F8864B1B68864A136015
:10037C00864B1B68864A136071E1002001F0FCF883
:10038C000346002B23D0824B1B687F4A1268114610
:10039C00184601F087F87A4B1B68184600F0BAFC37
:1003AC0020217C4801F0F9FC7B4B1B685A1C7A49D4
:1003BC000A60184600F0EAFF774B1B68032B02DD3E
:1003CC00754B00221A60FA21002001F0ADF80120D3
:1003DC0001F0D2F80346002B0ED06D4B1B68013B8D
:1003EC006B4A1360684B1B68013B674A13604FF400
:1003FC007A71012001F098F8654B1B68002B06DC24
:10040C005F4B02221A60654B1B68614A1360002027
:10041C00FFF796FE0346012B40F01A81584B05223C
:10042C001A6015E1002001F0A7F80346002B23D039
:10043C00574B1B68544A12681146184601F032F8A3
:10044C004F4B1B68184600F065FC2021514801F009
:10045C00A4FC514B1B685A1C4F490A60184600F00B
:10046C0095FF4D4B1B68032B02DD4B4B00221A6092
:10047C00FA21002001F058F8012001F07DF8034624
:10048C00002B0ED0424B1B68013B414A13603E4B84
:10049C001B68013B3C4A13604FF47A71012001F058
:1004AC0043F83B4B1B68002B0ADC354B03221A60CC
:1004BC00364B1B68344A1360324B1B68344A13604A
:1004CC000020FFF73DFE0346012B40F0C3802C4B70
:1004DC0005221A60BEE0002001F04EF80346002B06
:1004EC0023D02B4B1B68284A12681146184600F083
:1004FC00D9FF234B1B68184600F00CFC2021254823
:10050C0001F04BFC244B1B685A1C23490A6018460B
:10051C0000F03CFF204B1B68032B02DD1E4B00221E
:10052C001A60FA21002000F0FFFF012001F024F8EE
:10053C000346002B0ED0164B1B68013B144A13606C
:10054C00114B1B68013B104A13604FF47A71012068
:10055C0000F0EAFF0C4B1B68002B06DC084B042256
:10056C001A600E4B1B68084A13600020FFF7E8FD69
:10057C000346012B70D1024B05221A606CE000BFC0
:10058C00E000002078000020DC000020800000202B
:10059C00D800002000080140C80000207C0000208A
:1005AC00002000F0E9FF0346002B23D02D4B1B68E5
:1005BC002D4A12681146184600F074FF2B4B1B682D
:1005CC00184600F0A7FB2021294801F0E6FB294B37
:1005DC001B685A1C27490A60184600F0D7FE254BA9
:1005EC001B68032B02DD234B00221A60FA2100202A
:1005FC0000F09AFF012000F0BFFF0346002B0ED045
:10060C00184B1B68013B174A1360174B1B68013BC7
:10061C00154A13604FF47A71012000F085FF124BDC
:10062C001B68002B0ADC114B01221A60124B1B6851
:10063C000D4A1360114B1B680A4A13600020FFF728
:10064C007FFD0346012B09D1084B05221A6005E0FA
:10065C0000BF04E000BF02E000BF00E000BF00BF2D
:10066C0080BD00BFD8000020DC000020E00000208E
:10067C0000080140C8000020780000208000002005
:10068C0080B500AF9C4B1B680B2B00F04F810B2BE4
:10069C0000F3E181092B03D00A2B00F09780DAE1FB
:1006AC00964B1B68964A82FB03129210DB17D31AE7
:1006BC00944A1360914B1968914B83FB01239A1058
:1006CC00CB17D21A13469B0013445B00CA1A8D4BEE
:1006DC005A608C4B01229A608A4B0122DA6000200E
:1006EC0000F04AFF0346002B1BD0834B1B681846B7
:1006FC0000F010FB2021844801F04FFB834B1B685A
:10070C005A1C82490A60184600F040FE7F4B1B6859
:10071C00032B02DD7D4B00221A60FA21002000F031
:10072C0003FF0120FFF70CFD0346012B04D1724B94
:10073C000A221A6000F068FC0220FFF701FD034654
:10074C00012B0BD16D4B1B6801336C4A13606B4B47
:10075C001B68632B02DD694B00221A60FFF7D2FD88
:10076C000346002B27D06A4B1B68012B23D1684B07
:10077C005B68022B1FD1604B01221A605F4B1B6818
:10078C00132B40F368815D4B1B68322B00F36381A4
:10079C005A4B1B685F4A13605E4B1A685E4B1B68B2
:1007AC00D31A5E4A13605B4B1B685D4A13605B4B4C
:1007BC001B685C4A13600020FFF7C2FC0346012B48
:1007CC0040F042814C4B01221A603DE1564B1B68B4
:1007DC004B4A82FB03129210DB17D31A494A13605F
:1007EC00514B1968464B83FB01239A10CB17D21A35
:1007FC0013469B0013445B00CA1A424B5A60414B90
:10080C0000229A603F4B0122DA60002000F0B4FE17
:10081C000346002B1BD0384B1B68184600F07AFAA5
:10082C002021394801F0B9FA384B1B685A1C37495A
:10083C000A60184600F0AAFD344B1B68032B02DD3E
:10084C00324B00221A60FA21002000F06DFE0120CC
:10085C00FFF776FC0346012B04D1274B0B221A60C1
:10086C0000F0D2FB0220FFF76BFC0346012B0BD1EF
:10087C002D4B1B6801332C4A13602B4B1B68632BCD
:10088C0002DD294B00221A600120FFF759FC0346B8
:10089C00012B25D10220FFF753FC0346012B1FD15E
:1008AC00154B01221A60204B1B680E2B40F3D38092
:1008BC001D4B1B68312B00F3CE801B4B1B68174A5A
:1008CC001360164B1A68144B1B681344114A1360BF
:1008DC00104B1B68124A1360104B1B68114A1360B3
:1008EC000020FFF72DFC0346012B40F0AF80024B9C
:1008FC0001221A60AAE000BFE0000020CC0000201A
:10090C00676666665800002000080140C800002099
:10091C003C000020780000207C000020800000209B
:10092C00DC000020D8000020D40000204B4B1B68BA
:10093C004B4A82FB03129210DB17D31A494A1360FD
:10094C00464B1968464B83FB01239A10CB17D21ADE
:10095C0013469B0013445B00CA1A424B5A60414B2E
:10096C0001229A603F4B0022DA60002000F004FE66
:10097C000346002B1BD03C4B1B68184600F0CAF9F1
:10098C0020213A4801F009FA394B1B685A1C3849A6
:10099C000A60184600F0FAFC354B1B68032B02DD8D
:1009AC00334B00221A60FA21002000F0BDFD01201B
:1009BC00FFF7C6FB0346012B04D12B4B09221A600F
:1009CC0000F022FB0220FFF7BBFB0346012B0BD1EF
:1009DC00224B1B680133214A1360204B1B68632B8D
:1009EC0002DD1E4B00221A600120FFF7A9FB034613
:1009FC00012B1FD10220FFF7A3FB0346012B19D1BA
:100A0C00194B01221A60154B1B68052B20DC134B6C
:100A1C001B68184A1360184B1A68164B1B68134452
:100A2C00164A1360154B1B68154A1360124B1B6852
:100A3C00144A13600020FFF783FB0346012B09D1F6
:100A4C00094B01221A6005E000BF04E000BF02E080
:100A5C0000BF00E000BF00BF80BD00BFD000002081
:100A6C006766666658000020E00000200008014020
:100A7C00C80000207C0000208000002078000020AE
:100A8C00DC000020D800002080B500AF9C4B1B6818
:100A9C00053B032B00F2318101A252F823F000BF79
:100AAC00BD0A00084D0B0008DD0B00086B0C00089C
:100ABC00944B1B68944A1360924B5B68924A536048
:100ACC00904B9B68904A93608E4BDB688E4AD36048
:100ADC00002000F051FD0346002B16D020218B483E
:100AEC0001F05BF98A4B1B685A1C89490A6018464D
:100AFC0000F04CFC864B1B68032B02DD844B002260
:100B0C001A60FA21002000F00FFD7D4B1B6818467F
:100B1C0000F000F90120FFF713FB0346012B02D173
:100B2C00774B06221A600020FFF70AFB0346012BC5
:100B3C0040F0DC8000F068FA714B09221A60D5E0B5
:100B4C00704B1B68704A13606E4B5B686E4A536047
:100B5C006C4B9B686C4A93606A4BDB686A4AD36047
:100B6C00002000F009FD0346002B16D02021674819
:100B7C0001F013F9664B1B685A1C65490A6018464C
:100B8C0000F004FC624B1B68032B02DD604B00225F
:100B9C001A60FA21002000F0C7FC594B1B6818465C
:100BAC0000F0B8F80120FFF7CBFA0346012B02D175
:100BBC00534B07221A600020FFF7C2FA0346012BA1
:100BCC0040F0968000F020FA4D4B09221A608FE01D
:100BDC004C4B1B684C4A13604A4B5B684A4A536047
:100BEC00484B9B68484A9360464BDB68464AD36047
:100BFC00002000F0C1FC0346002B16D020214348F6
:100C0C0001F0CBF8424B1B685A1C41490A6018464C
:100C1C0000F0BCFB3E4B1B68032B02DD3C4B00225F
:100C2C001A60FA21002000F07FFC354B1B68184637
:100C3C0000F070F80120FFF783FA0346012B02D174
:100C4C002F4B08221A600020FFF77AFA0346012B7B
:100C5C0050D100F0D9F92A4B09221A604AE0294BED
:100C6C001B68294A1360274B5B68274A5360254B46
:100C7C009B68254A9360234BDB68234AD360002092
:100C8C0000F07AFC0346002B16D020211F4801F0FF
:100C9C0084F81F4B1B685A1C1D490A60184600F04B
:100CAC0075FB1B4B1B68032B02DD194B00221A60D2
:100CBC00FA21002000F038FC114B1B68184600F09C
:100CCC0029F80120FFF73CFA0346012B02D10C4B0B
:100CDC0005221A600020FFF733FA0346012B0BD1D3
:100CEC0000F092F9064B09221A6005E000BF04E0FF
:100CFC0000BF02E000BF00E000BF00BF80BD00BF2E
:100D0C00E00000206800002058000020000801408E
:100D1C00C800002080B582B000AF78607B680B2BD8
:100D2C0000F2688101A252F823F000BF690D00089F
:100D3C006F0D0008B90D0008030E00084D0E0008D9
:100D4C00970E0008E10E00082B0F0008750F000825
:100D5C00BF0F0008D50F0008EB0F000801237B60C4
:100D6C004BE100224FF40041A64800F0FEFF0022A8
:100D7C004FF48041A34800F0F8FF01224FF40051DA
:100D8C00A04800F0F2FF01224FF480519D4800F082
:100D9C00ECFF00224FF400619A4800F0E6FF0022BD
:100DAC004FF48061974800F0E0FF26E100224FF4F9
:100DBC000041944800F0D9FF01224FF48041914842
:100DCC0000F0D3FF00224FF400518E4800F0CDFF0D
:100DDC0001224FF480518B4800F0C7FF00224FF4E2
:100DEC000061884800F0C1FF00224FF48061854803
:100DFC0000F0BBFF01E101224FF40041814800F0FB
:100E0C00B4FF00224FF480417E4800F0AEFF002278
:100E1C004FF400517B4800F0A8FF00224FF48051A2
:100E2C00784800F0A2FF00224FF40061754800F0F2
:100E3C009CFF01224FF48061724800F096FFDCE0C9
:100E4C0001224FF400416F4800F08FFF00224FF455
:100E5C0080416C4800F089FF00224FF40051694832
:100E6C0000F083FF00224FF48051664800F07DFFB4
:100E7C0001224FF40061634800F077FF00224FF429
:100E8C008061604800F071FFB7E000224FF4004130
:100E9C005C4800F06AFF00224FF48041594800F092
:100EAC0064FF01224FF40051564800F05EFF01220E
:100EBC004FF48051534800F058FF00224FF400616A
:100ECC00504800F052FF00224FF480614D4800F072
:100EDC004CFF92E000224FF400414A4800F045FFDD
:100EEC0001224FF48041474800F03FFF00224FF4AD
:100EFC000051444800F039FF01224FF48051414821
:100F0C0000F033FF00224FF400613E4800F02DFF4B
:100F1C0000224FF480613B4800F027FF6DE0012276
:100F2C004FF40041374800F020FF00224FF480417D
:100F3C00344800F01AFF00224FF40051314800F001
:100F4C0014FF00224FF480512E4800F00EFF0022B7
:100F5C004FF400612B4800F008FF01224FF4806130
:100F6C00284800F002FF48E001224FF400412548D8
:100F7C0000F0FBFE00224FF48041224800F0F5FE09
:100F8C0000224FF400511F4800F0EFFE00224FF4F6
:100F9C0080511C4800F0E9FE01224FF40061194811
:100FAC0000F0E3FE00224FF48061164800F0DDFEF5
:100FBC0023E04FF40041134800F0EFFE4FF4805152
:100FCC00104800F0EAFE18E04FF400510D4800F014
:100FDC00E4FE4FF480610B4800F0DFFE0DE04FF4AF
:100FEC008041084800F0D9FE4FF40061054800F03C
:100FFC00D4FE02E000237B6000BF00BF0837BD4673
:10100C0080BD00BF000C014080B500AF00224FF442
:10101C000041114800F0A9FE00224FF480510E4807
:10102C0000F0A3FE00224FF480410B4800F09DFE1F
:10103C0000224FF40061084800F097FE00224FF4A4
:10104C000051054800F091FE00224FF480610248E7
:10105C0000F08BFE00BF80BD000C014080B500AFDE
:10106C0000F082FB00F028F800F0AEF800F060F819
:10107C00104801F0D7FA0321002000F055FA0521A1
:10108C00012000F051FA0D21042000F04DFA11213D
:10109C00052000F049FA1321062000F045FA022140
:1010AC00072000F041FAFFF73FF9FFF7EDFCFFF7DF
:1010BC00E7FAF8E7E400002080B590B000AF07F144
:1010CC00180328220021184601F05CFE3B1D00226B
:1010DC001A605A609A60DA601A610223BB610123BC
:1010EC00BB621023FB6200237B6307F118031846D5
:1010FC0000F06CFE0346002B01D000F00FFA0F231A
:10110C007B600023BB600023FB6000233B6100235A
:10111C007B613B1D0021184601F0D8F80346002BDB
:10112C0001D000F0FBF900BF4037BD4680BD000088
:10113C0080B586B000AF07F1080300221A605A6030
:10114C009A60DA603B4600221A605A601D4B4FF0E1
:10115C0080421A601B4B41F63F725A60194B0022B9
:10116C009A60184B0922DA60164B00221A61154B53
:10117C0000229A61134801F005FA0346002B01D0B6
:10118C0000F0CCF94FF48053BB6007F1080319460B
:10119C000C4801F083FB0346002B01D000F0BEF994
:1011AC0000233B6000237B603B461946054801F059
:1011BC005BFD0346002B01D000F0B0F900BF1837DF
:1011CC00BD4680BDE400002080B588B000AF07F1BB
:1011DC00100300221A605A609A60DA602F4B9B69E8
:1011EC002E4A43F0100393612C4B9B6903F01003C0
:1011FC00FB60FB68294B9B69284A43F0040393610D
:10120C00264B9B6903F00403BB60BB68234B9B69B3
:10121C00224A43F008039361204B9B6903F00803B7
:10122C007B607B6800224FF47C711D4800F09DFDB3
:10123C0000224FF67F411B4800F097FD4FF46043AE
:10124C003B6100237B610123BB6107F1100319464D
:10125C00154800F0F9FB4FF47C733B6101237B6173
:10126C000023BB610223FB6107F1100319460C48F4
:10127C0000F0EAFB4FF67F433B6101237B610023C7
:10128C00BB610223FB6107F110031946054800F00E
:10129C00DBFB00BF2037BD4680BD00BF0010024005
:1012AC0000080140000C01400010014080B582B0E4
:1012BC0000AF786000F07AF9FEF75CFF00BF0837EA
:1012CC00BD4680BD80B584B000AF78607B68002BD4
:1012DC0053DB7B68092B50DC2A4A7B6813441B7850
:1012EC00FB73FB7B03F00103DBB21A46012126489A
:1012FC0000F03BFDFB7B5B08DBB203F00103DBB2D0
:10130C001A460221204800F030FDFB7B9B08DBB223
:10131C0003F00103DBB21A4604211B4800F025FD43
:10132C00FB7BDB08DBB203F00103DBB21A460821BE
:10133C00154800F01AFDFB7B1B09DBB203F001031F
:10134C00DBB21A461021104800F00FFDFB7B5B0945
:10135C00DBB203F00103DBB21A4620210A4800F08D
:10136C0004FDFB7B9B09DBB203F00103DBB21A46E5
:10137C004021054800F0F9FC00E000BF1037BD46E5
:10138C0080BD00BFB82D0008000C014080B582B0B4
:10139C0000AF78607B68032B7AD801A252F823F057
:1013AC00BD130008F51300082D140008651400087F
:1013BC003A4B1B681846FFF785FF0122402138483D
:1013CC0000F0D3FC00228021354800F0CEFC002236
:1013DC004FF48071324800F0C8FC00224FF40071C9
:1013EC002F4800F0C2FC54E02C4B5B681846FFF70A
:1013FC0069FF002240212A4800F0B7FC012280211D
:10140C00274800F0B2FC00224FF48071244800F011
:10141C00ACFC00224FF40071214800F0A6FC38E02F
:10142C001E4B9B681846FFF74DFF002240211C48BD
:10143C0000F09BFC00228021194800F096FC012250
:10144C004FF48071164800F090FC00224FF40071AC
:10145C00134800F08AFC1CE0104BDB681846FFF7C1
:10146C0031FF002240210E4800F07FFC0022802139
:10147C000B4800F07AFC00224FF48071084800F011
:10148C0074FC01224FF40071054800F06EFC00E082
:10149C0000BF00BF0837BD4680BD00BF580000200C
:1014AC000008014080B483B000AF786039607B687D
:1014BC00184A82FB03129210DB17D31A164A1360D8
:1014CC007968144B83FB01239A10CB17D21A13465D
:1014DC009B0013445B00CA1A0F4B5A603B680D4AC1
:1014EC0082FB03129210DB17D31A0B4A93603968F4
:1014FC00084B83FB01239A10CB17D21A13469B007F
:10150C0013445B00CA1A044BDA6000BF0C37BD46AB
:10151C0080BC7047676666665800002080B400AFD8
:10152C0072B600BFFEE7000080B483B000AF7860F5
:10153C0039607B68002B13DB7B68132B10DC3B685A
:10154C000A4A82FB03129210DB17D21A08497B68F5
:10155C0041F82320074A7B68002142F8231000E061
:10156C0000BF0C37BD4680BC704700BF676666661F
:10157C002C0100207C01002080B483B000AF786087
:10158C00094A7B6852F82330012B06D1064A7B6846
:10159C00002142F82310012300E0002318460C37E9
:1015AC00BD4680BC704700BF7C01002080B483B076
:1015BC0000AF00237B6016E00F4A7B6852F82330A3
:1015CC005A1E0D497B6841F823200B4A7B6852F860
:1015DC002330002B04DC094A7B68012142F82310DC
:1015EC007B6801337B607B68132BE5DD00BF00BF9C
:1015FC000C37BD4680BC70472C0100207C010020BC
:10160C0080B485B000AF154B9B69144A43F00103BD
:10161C009361124B9B6903F00103BB60BB680F4BDA
:10162C00DB690E4A43F08053D3610C4BDB6903F04A
:10163C0080537B607B680A4B5B68FB60FB6823F024
:10164C00E063FB60FB6843F08063FB60044AFB686B
:10165C00536000BF1437BD4680BC70470010024079
:10166C000000014080B584B000AF78607B681B68D7
:10167C00B3F1804F13D10C4BDB690B4A43F00103E0
:10168C00D361094BDB6903F00103FB60FB680022AB
:10169C0000211C2000F0A1F91C2000F0BAF900BFB9
:1016AC001037BD4680BD00BF0010024080B400AFB3
:1016BC00FEE780B400AFFEE780B400AFFEE780B475
:1016CC0000AFFEE780B400AFFEE780B400AF00BF10
:1016DC00BD4680BC704780B400AF00BFBD4680BC27
:1016EC00704780B400AF00BFBD4680BC704780B56A
:1016FC0000AF00F07FF800BF80BD000080B500AFE8
:10170C00024800F0DBFF00BF80BD00BFE4000020FA
:10171C0080B400AF00BFBD4680BC7047FFF7F8FF38
:10172C000B480C490C4A002302E0D458C450043333
:10173C00C4188C42F9D3094A094C002301E0136008
:10174C000432A242FBD301F0F9FAFFF787FC704791
:10175C000000002090000020F02D000890000020D8
:10176C00D0010020FEE7000080B500AF084B1B68DD
:10177C00074A43F010031360032000F023F90F20F5
:10178C0000F008F8FFF73CFF0023184680BD00BFAF
:10179C000020024080B582B000AF7860124B1A680E
:1017AC00124B1B7819464FF47A73B3FBF1F3B2FB6F
:1017BC00F3F3184600F03BF90346002B01D001234C
:1017CC000EE07B680F2B0AD8002279684FF0FF30AF
:1017DC0000F003F9064A7B681360002300E0012344
:1017EC0018460837BD4680BD840000208C000020C0
:1017FC008800002080B400AF054B1B781A46054BBF
:10180C001B681344034A136000BFBD4680BC70477D
:10181C008C000020CC01002080B400AF024B1B6870
:10182C001846BD4680BC7047CC01002080B485B002
:10183C0000AF78607B6803F00703FB600C4BDB6840
:10184C00BB60BA684FF6FF031340BB60FB681A021B
:10185C00BB68134343F0BF6343F40033BB60044ADB
:10186C00BB68D36000BF1437BD4680BC704700BF57
:10187C0000ED00E080B400AF044BDB681B0A03F002
:10188C0007031846BD4680BC704700BF00ED00E062
:10189C0080B483B000AF0346FB7197F90730002B7F
:1018AC000BDBFB7903F01F02064997F907305B0944
:1018BC00012000FA02F241F8232000BF0C37BD468C
:1018CC0080BC704700E100E080B483B000AF0346F9
:1018DC003960FB7197F90730002B0ADB3B68DAB2F1
:1018EC000C4997F907301201D2B20B4483F800234C
:1018FC000AE03B68DAB20849FB7903F00F03043BBA
:10190C001201D2B20B441A7600BF0C37BD4680BC14
:10191C00704700BF00E100E000ED00E080B489B04A
:10192C0000AFF860B9607A60FB6803F00703FB61F5
:10193C00FB69C3F10703042B28BF0423BB61FB69BC
:10194C000433062B02D9FB69033B00E000237B61C7
:10195C004FF0FF32BB6902FA03F3DA43BB681A405B
:10196C007B699A404FF0FF317B6901FA03F3D9434D
:10197C007B680B40134318462437BD4680BC704728
:10198C0080B582B000AF78607B68013BB3F1807F9B
:10199C0001D301230FE00A4A7B68013B53600F21FE
:1019AC004FF0FF30FFF790FF054B00229A60044B7D
:1019BC0007221A60002318460837BD4680BD00BFB9
:1019CC0010E000E080B582B000AF78607868FFF777
:1019DC002DFF00BF0837BD4680BD80B586B000AF77
:1019EC000346B9607A60FB7300237B61FFF742FF0B
:1019FC0078617A68B9687869FFF790FF024697F9C1
:101A0C000F3011461846FFF75FFF00BF1837BD4671
:101A1C0080BD80B582B000AF0346FB7197F90730EB
:101A2C001846FFF735FF00BF0837BD4680BD80B5AF
:101A3C0082B000AF78607868FFF7A2FF03461846C3
:101A4C000837BD4680BD000080B48BB000AF786015
:101A5C00396000237B6200233B6248E101227B6AF0
:101A6C0002FA03F3FB613B681B68FA691340BB6124
:101A7C00BA69FB699A4240F037813B685B68A34ABC
:101A8C0093425ED0A14A934275D8A14A934258D052
:101A9C009F4A93426FD89F4A934252D09D4A934299
:101AAC0069D89D4A93424CD09B4A934263D89B4A37
:101ABC00934246D0994A93425DD8122B2AD8122BC6
:101ACC0059D801A252F823F04F1B0008291B00081B
:101ADC003B1B00087D1B0008831B0008831B0008B0
:101AEC00831B0008831B0008831B0008831B000852
:101AFC00831B0008831B0008831B0008831B000842
:101B0C00831B0008831B0008831B0008311B000883
:101B1C00451B0008824A934213D02CE03B68DB68DB
:101B2C003B6229E03B68DB6804333B6224E03B68A2
:101B3C00DB6808333B621FE03B68DB680C333B62BD
:101B4C001AE03B689B68002B02D104233B6213E034
:101B5C003B689B68012B05D108233B627B68FA69C3
:101B6C001A6109E008233B627B68FA695A6103E059
:101B7C0000233B6200E000BFBB69FF2B01D87B68F0
:101B8C0001E07B6804337B61BB69FF2B02D87B6A65
:101B9C009B0002E07B6A083B9B003B617B691A68F7
:101BAC000F213B6901FA03F3DB431A40396A3B69A5
:101BBC0001FA03F31A437B691A603B685B6803F014
:101BCC008053002B00F09080564B9B69554A43F094
:101BDC0001039361534B9B6903F00103BB60BB682A
:101BEC00514A7B6A9B08023352F82330FB607B6AB4
:101BFC0003F003039B000F2202FA03F3DB43FA68A2
:101C0C001340FB607B68494A93420DD07B68484A7D
:101C1C00934207D07B68474A934201D1022304E0E8
:101C2C00032302E0012300E000237A6A02F003029E
:101C3C0092009340FA681343FB603B497B6A9B0814
:101C4C000233FA6841F823203B685B6803F4801385
:101C5C00002B06D0384B9A683749BB6913438B600D
:101C6C0006E0354B9A68BB69DB43334913408B6004
:101C7C003B685B6803F40013002B06D02E4BDA682C
:101C8C002D49BB691343CB6006E02B4BDA68BB696B
:101C9C00DB4329491340CB603B685B6803F400339A
:101CAC00002B06D0244B5A682349BB6913434B6065
:101CBC0006E0214B5A68BB69DB431F4913404B605C
:101CCC003B685B6803F48033002B06D01A4B1A6810
:101CDC001949BB6913430B6006E0174B1A68BB69C3
:101CEC00DB43154913400B607B6A01337B623B6815
:101CFC001A687B6A22FA03F3002B7FF4AFAE00BFA5
:101D0C0000BF2C37BD4680BC704700BF00003210AE
:101D1C0000003110000022100000211000001210F1
:101D2C0000001110001002400000014000080140AA
:101D3C00000C0140001001400004014080B485B04B
:101D4C0000AF78600B467B807B689A687B88134079
:101D5C00002B02D00123FB7301E00023FB73FB7B00
:101D6C0018461437BD4680BC704780B483B000AFB2
:101D7C0078600B467B8013467B707B78002B03D0FE
:101D8C007A887B681A6103E07B881A047B681A6185
:101D9C0000BF0C37BD4680BC704780B485B000AF27
:101DAC0078600B467B807B68DB68FB607A88FB681D
:101DBC0013401A04FB68D9437B880B401A437B6899
:101DCC001A6100BF1437BD4680BC704780B586B021
:101DDC0000AF78607B68002B01D101236CE27B683B
:101DEC001B6803F00103002B00F08780924B5B68AB
:101DFC0003F00C03042B0CD08F4B5B6803F00C032B
:101E0C00082B12D18C4B5B6803F48033B3F5803F05
:101E1C000BD1894B1B6803F40033002B6CD07B680F
:101E2C005B68002B68D1012346E27B685B68B3F5E5
:101E3C00803F06D1804B1B687F4A43F4803313608C
:101E4C002EE07B685B68002B0CD17B4B1B687A4ABD
:101E5C0023F480331360784B1B68774A23F4802378
:101E6C0013601DE07B685B68B3F5A02F0CD1724B3F
:101E7C001B68714A43F4802313606F4B1B686E4AD6
:101E8C0043F4803313600BE06B4B1B686A4A23F4FA
:101E9C0080331360684B1B68674A23F480231360FC
:101EAC007B685B68002B13D0FFF7B6FC386108E049
:101EBC00FFF7B2FC02463B69D31A642B01D903230A
:101ECC00FAE15D4B1B6803F40033002BF0D014E0F7
:101EDC00FFF7A2FC386108E0FFF79EFC02463B6965
:101EEC00D31A642B01D90323E6E1534B1B6803F48B
:101EFC000033002BF0D100E000BF7B681B6803F0BF
:101F0C000203002B63D04C4B5B6803F00C03002BDB
:101F1C000BD0494B5B6803F00C03082B1CD1464BD0
:101F2C005B6803F48033002B16D1434B1B6803F022
:101F3C000203002B05D07B681B69012B01D0012308
:101F4C00BAE13D4B1B6823F0F8027B685B69DB0050
:101F5C00394913430B603AE07B681B69002B20D096
:101F6C00364B01221A60FFF757FC386108E0FFF787
:101F7C0053FC02463B69D31A022B01D903239BE184
:101F8C002D4B1B6803F00203002BF0D02A4B1B686F
:101F9C0023F0F8027B685B69DB00274913430B6075
:101FAC0015E0264B00221A60FFF736FC386108E07A
:101FBC00FFF732FC02463B69D31A022B01D90323EB
:101FCC007AE11D4B1B6803F00203002BF0D17B68F8
:101FDC001B6803F00803002B3AD07B689B69002B2D
:101FEC0019D0174B01221A60FFF716FC386108E074
:101FFC00FFF712FC02463B69D31A022B01D90323CB
:10200C005AE10D4B5B6A03F00203002BF0D0012068
:10201C0000F09AFA1CE00A4B00221A60FFF7FCFB56
:10202C0038610FE0FFF7F8FB02463B69D31A022B2D
:10203C0008D9032340E100BF0010024000004242D7
:10204C00800442429E4B5B6A03F00203002BE9D1F1
:10205C007B681B6803F00403002B00F0A6800023B0
:10206C00FB75974BDB6903F08053002B0DD1944B20
:10207C00DB69934A43F08053D361914BDB6903F0E6
:10208C008053BB60BB680123FB758E4B1B6803F44C
:10209C008073002B18D18B4B1B688A4A43F48073D6
:1020AC001360FFF7B9FB386108E0FFF7B5FB024698
:1020BC003B69D31A642B01D90323FDE0814B1B68C8
:1020CC0003F48073002BF0D07B68DB68012B06D106
:1020DC007B4B1B6A7A4A43F0010313622DE07B6849
:1020EC00DB68002B0CD1764B1B6A754A23F001037D
:1020FC001362734B1B6A724A23F0040313621CE0D5
:10210C007B68DB68052B0CD16D4B1B6A6C4A43F06A
:10211C00040313626A4B1B6A694A43F0010313629E
:10212C000BE0674B1B6A664A23F001031362644B96
:10213C001B6A634A23F0040313627B68DB68002B81
:10214C0015D0FFF769FB38610AE0FFF765FB024623
:10215C003B69D31A41F28832934201D90323ABE095
:10216C00574B1B6A03F00203002BEED014E0FFF771
:10217C0053FB38610AE0FFF74FFB02463B69D31A69
:10218C0041F28832934201D9032395E04C4B1B6AF0
:10219C0003F00203002BEED1FB7D012B05D1484B44
:1021AC00DB69474A23F08053D3617B68DB69002BE2
:1021BC0000F08180424B5B6803F00C03082B61D06C
:1021CC007B68DB69022B46D13F4B00221A60FFF77C
:1021DC0023FB386108E0FFF71FFB02463B69D31A6B
:1021EC00022B01D9032367E0354B1B6803F0007306
:1021FC00002BF0D17B681B6AB3F5803F08D1304BC4
:10220C005B6823F400327B689B682D4913434B6059
:10221C002B4B5B6823F474127B68196A7B685B6ACE
:10222C000B43274913434B60274B01221A60FFF7DE
:10223C00F3FA386108E0FFF7EFFA02463B69D31A6C
:10224C00022B01D9032337E01D4B1B6803F00073ED
:10225C00002BF0D02FE01C4B00221A60FFF7DCFAA9
:10226C00386108E0FFF7D8FA02463B69D31A022B13
:10227C0001D9032320E0124B1B6803F00073002BE1
:10228C00F0D118E07B68DB69012B01D1012313E04D
:10229C000B4B5B68FB60FB6803F480327B681B6A4A
:1022AC009A4206D1FB6803F470127B685B6A9A420F
:1022BC0001D0012300E0002318461837BD4680BD2D
:1022CC0000100240007000406000424280B584B0B3
:1022DC0000AF786039607B68002B01D10123D0E01E
:1022EC006A4B1B6803F007033A689A4210D9674B94
:1022FC001B6823F0070265493B6813430B60634B73
:10230C001B6803F007033A689A4201D00123B8E036
:10231C007B681B6803F00203002B20D07B681B68D2
:10232C0003F00403002B05D0594B5B68584A43F467
:10233C00E06353607B681B6803F00803002B05D037
:10234C00534B5B68524A43F460535360504B5B6889
:10235C0023F0F0027B689B684D4913434B607B680C
:10236C001B6803F00103002B40D07B685B68012BDA
:10237C0007D1474B1B6803F40033002B15D1012305
:10238C007FE07B685B68022B07D1414B1B6803F035
:10239C000073002B09D1012373E03D4B1B6803F044
:1023AC000203002B01D101236BE0394B5B6823F056
:1023BC0003027B685B68364913434B60FFF72CFACA
:1023CC00F8600AE0FFF728FA0246FB68D31A41F2DC
:1023DC008832934201D9032353E02D4B5B6803F001
:1023EC000C027B685B689B009A42EBD1274B1B6805
:1023FC0003F007033A689A4210D2244B1B6823F06F
:10240C00070222493B6813430B60204B1B6803F007
:10241C0007033A689A4201D0012332E07B681B68BB
:10242C0003F00403002B08D0194B5B6823F4E06223
:10243C007B68DB68164913434B607B681B6803F0B1
:10244C000803002B09D0124B5B6823F460527B68A5
:10245C001B69DB000E4913434B6000F021F8024668
:10246C000B4B5B681B0903F00F030A49CB5C22FA88
:10247C0003F3094A1360094B1B681846FFF78AF9E6
:10248C00002318461037BD4680BD00BF0020024017
:10249C0000100240C42D0008840000208800002099
:1024AC0080B487B000AF0023FB600023BB60002327
:1024BC007B6100237B6000233B611E4B5B68FB60F0
:1024CC00FB6803F00C03042B02D0082B03D027E08D
:1024DC00194B3B6127E0FB689B0C03F00F03174A79
:1024EC00D35C7B60FB6803F48033002B10D0114B62
:1024FC005B685B0C03F00103114AD35CBB607B6827
:10250C000D4A02FB03F2BB68B2FBF3F37B6104E000
:10251C007B680C4A02FB03F37B617B693B6102E045
:10252C00054B3B6100BF3B6918461C37BD4680BC60
:10253C00704700BF0010024000127A00D42D000832
:10254C00E42D000800093D0080B485B000AF786030
:10255C000A4B1B680A4AA2FB03235B0A7A6802FB3C
:10256C0003F3FB6000BFFB685A1EFA60002BF9D125
:10257C0000BF00BF1437BD4680BC704784000020EC
:10258C00D34D621080B582B000AF78607B68002BB1
:10259C0001D1012341E07B6893F83D30DBB2002B85
:1025AC0006D17B68002283F83C207868FFF75AF844
:1025BC007B68022283F83D207B681A687B680433B1
:1025CC001946104600F056FA7B68012283F8462023
:1025DC007B68012283F83E207B68012283F83F2030
:1025EC007B68012283F840207B68012283F841201C
:1025FC007B68012283F842207B68012283F8432008
:10260C007B68012283F844207B68012283F84520F3
:10261C007B68012283F83D20002318460837BD460D
:10262C0080BD000080B485B000AF78607B6893F803
:10263C003D30DBB2012B01D0012335E07B68022257
:10264C0083F83D207B681B68DA687B681B6842F066
:10265C000102DA607B681B68164A934209D07B68DA
:10266C001B68B3F1804F04D07B681B68124A9342FD
:10267C0011D17B681B689B6803F00703FB60FB6848
:10268C00062B10D07B681B681A687B681B6842F0AD
:10269C0001021A6007E07B681B681A687B681B687C
:1026AC0042F001021A60002318461437BD4680BC64
:1026BC00704700BF002C01400004004080B584B07E
:1026CC0000AF78607B681B68DB68FB607B681B680D
:1026DC001B69BB60BB6803F00203002B20D0FB68B6
:1026EC0003F00203002B1BD07B681B686FF0020207
:1026FC001A617B6801221A777B681B689B6903F05F
:10270C000303002B03D0786800F098F905E0786893
:10271C0000F08BF9786800F09AF97B6800221A7740
:10272C00BB6803F00403002B20D0FB6803F0040308
:10273C00002B1BD07B681B686FF004021A617B684E
:10274C0002221A777B681B689B6903F44073002B89
:10275C0003D0786800F072F905E0786800F065F94C
:10276C00786800F074F97B6800221A77BB6803F074
:10277C000803002B20D0FB6803F00803002B1BD0B0
:10278C007B681B686FF008021A617B6804221A7759
:10279C007B681B68DB6903F00303002B03D07868AC
:1027AC0000F04CF905E0786800F03FF9786800F02B
:1027BC004EF97B6800221A77BB6803F01003002BDC
:1027CC0020D0FB6803F01003002B1BD07B681B6828
:1027DC006FF010021A617B6808221A777B681B68FD
:1027EC00DB6903F44073002B03D0786800F026F902
:1027FC0005E0786800F019F9786800F028F97B6832
:10280C0000221A77BB6803F00103002B0CD0FB6885
:10281C0003F00103002B07D07B681B686FF00102EB
:10282C001A617868FEF742FDBB6803F08003002B49
:10283C000CD0FB6803F08003002B07D07B681B686F
:10284C006FF080021A61786800F06FFABB6803F0D1
:10285C004003002B0CD0FB6803F04003002B07D087
:10286C007B681B686FF040021A61786800F0F8F81A
:10287C00BB6803F02003002B0CD0FB6803F0200393
:10288C00002B07D07B681B686FF020021A617868F8
:10289C0000F042FA00BF1037BD4680BD80B584B051
:1028AC0000AF786039600023FB737B6893F83C3091
:1028BC00012B01D10223B4E07B68012283F83C2078
:1028CC007B68022283F83D207B681B689B68BB6099
:1028DC00BB6823F07703BB60BB6823F47F43BB600A
:1028EC007B681B68BA689A603B681B68B3F5005F2D
:1028FC003ED0B3F5005F00F28780B3F5805F00F047
:10290C008680B3F5805F7FD8702B1AD0702B7BD864
:10291C00602B50D0602B77D8502B3CD0502B73D8D9
:10292C00402B58D0402B6FD8302B64D0302B6BD829
:10293C00202B60D0202B67D8002B5CD0102B5AD0CA
:10294C0062E07B6818683B6899683B685A683B682A
:10295C00DB6800F06AF97B681B689B68BB60BB682E
:10296C0043F07703BB607B681B68BA689A604FE0E2
:10297C007B6818683B6899683B685A683B68DB68F9
:10298C0000F053F97B681B689A687B681B6842F4FB
:10299C0080429A603CE07B6818683B6859683B68E9
:1029AC00DB681A4600F0CAF87B681B685021184691
:1029BC0000F021F92CE07B6818683B6859683B688B
:1029CC00DB681A4600F0E8F87B681B686021184643
:1029DC0000F011F91CE07B6818683B6859683B688B
:1029EC00DB681A4600F0AAF87B681B684021184681
:1029FC0000F001F90CE07B681A683B681B6819460B
:102A0C00104600F0F8F803E00123FB7300E000BF70
:102A1C007B68012283F83D207B68002283F83C20F0
:102A2C00FB7B18461037BD4680BD80B483B000AF29
:102A3C00786000BF0C37BD4680BC704780B483B053
:102A4C0000AF786000BF0C37BD4680BC704780B4C7
:102A5C0083B000AF786000BF0C37BD4680BC7047B8
:102A6C0080B483B000AF786000BF0C37BD4680BC2B
:102A7C007047000080B485B000AF786039607B6827
:102A8C001B68FB607B682B4A934207D07B68B3F1D1
:102A9C00804F03D07B68284A934208D1FB6823F00F
:102AAC007003FB603B685B68FA681343FB607B68F0
:102ABC00204A934207D07B68B3F1804F03D07B68E8
:102ACC001D4A934208D1FB6823F44073FB603B68BA
:102ADC00DB68FA681343FB60FB6823F080023B68F9
:102AEC005B691343FB607B68FA681A603B689A6801
:102AFC007B68DA623B681A687B689A627B680D4A6D
:102B0C00934203D13B681A697B681A637B68012284
:102B1C005A617B681B6903F00103002B05D07B68AD
:102B2C001B6923F001027B681A6100BF1437BD4694
:102B3C0080BC7047002C01400004004080B487B07A
:102B4C0000AFF860B9607A60FB681B6A7B61FB6858
:102B5C001B6A23F00102FB681A62FB689B693B61EC
:102B6C003B6923F0F0033B617B681B013A6913431B
:102B7C003B617B6923F00A037B617A69BB68134371
:102B8C007B61FB683A699A61FB687A691A6200BFDB
:102B9C001C37BD4680BC704780B487B000AFF8606E
:102BAC00B9607A60FB681B6A7B61FB681B6A23F067
:102BBC001002FB681A62FB689B693B613B6923F45A
:102BCC0070433B617B681B033A6913433B617B6930
:102BDC0023F0A0037B61BB681B017A6913437B6103
:102BEC00FB683A699A61FB687A691A6200BF1C3704
:102BFC00BD4680BC704780B485B000AF786039604A
:102C0C007B689B68FB60FB6823F07003FB603A6891
:102C1C00FB68134343F00703FB607B68FA689A6018
:102C2C0000BF1437BD4680BC704780B487B000AF7E
:102C3C00F860B9607A603B60FB689B687B617B697C
:102C4C0023F47F437B613B681A027B681A43BB68A1
:102C5C0013437A6913437B61FB687A699A6000BFFE
:102C6C001C37BD4680BC704780B485B000AF78601F
:102C7C0039607B6893F83C30012B01D1022341E091
:102C8C007B68012283F83C207B68022283F83D207C
:102C9C007B681B685B68FB607B681B689B68BB6020
:102CAC00FB6823F07003FB603B681B68FA681343F6
:102CBC00FB607B681B68FA685A607B681B68144A67
:102CCC00934209D07B681B68B3F1804F04D07B68BA
:102CDC001B68104A93420CD1BB6823F08003BB6085
:102CEC003B685B68BA681343BB607B681B68BA6857
:102CFC009A607B68012283F83D207B68002283F870
:102D0C003C20002318461437BD4680BC704700BFDA
:102D1C00002C01400004004080B483B000AF786008
:102D2C0000BF0C37BD4680BC704780B483B000AF89
:102D3C00786000BF0C37BD4680BC704770B500266C
:102D4C000C4D0D4C641BA410A64209D100F022F8C6
:102D5C0000260A4D0A4C641BA410A64205D170BD76
:102D6C0055F8043B98470136EEE755F8043B984775
:102D7C000136F2E7E82D0008E82D0008E82D0008E0
:102D8C00EC2D000803460244934200D1704703F82F
:102D9C00011BF9E7F8B500BFF8BC08BC9E467047AC
:0C2DAC00F8B500BFF8BC08BC9E4670479C
:102DB8004079243019120278001000000000000049
:102DC80000000000010203040607080902030405C5
:102DD800060708090A0B0C0D0E0F1010010200005F
:042DE80031010008AD
:042DEC000D010008CD
:102DF00001000000010000000100000001000000CF
:102E000001000000010000000100000001000000BE
:102E100001000000010000000100000001000000AE
:102E2000640000006400000064000000FFFFFFFF7A
:102E3000FFFFFFFF001001400010014000100140A3
:102E4000002000400080000001000000020000009F
:102E50000300000004000000010000000100000069
:102E60000400000007000000050000000200000050
:102E70000300000000127A001000000001000000B2
:0400000508001729AF
:00000001FF
