:020000040800F2
:1000000000280020D9150008691500086F150008A0
:10001000751500087B150008811500080000000018
:10002000000000000000000000000000871500082C
:1000300093150008000000009F150008AB1500088C
:1000400021160008211600082116000821160008B4
:1000500021160008211600082116000821160008A4
:100060002116000821160008211600082116000894
:100070002116000821160008211600082116000884
:100080002116000821160008211600082116000874
:100090002116000821160008211600082116000864
:1000A0002116000821160008211600082116000854
:1000B000B9150008211600080000000021160008EC
:1000C00021160008000000000000000021160008B2
:1000D00000000000211600082116000800000000A2
:1000E0002116000821160008211600080000000053
:1000F0000000000000000000000000000000000000
:0C01000000000000000000005FF808F1A3
:10010C0010B5054C237833B9044B13B10448AFF345
:10011C0000800123237010BD780000200000000037
:10012C00502C000808B5034B1BB103490348AFF32F
:10013C00008008BD000000007C000020502C00084E
:10014C0080B584B000AF786001F0BEFAF860094A5F
:10015C007B6852F82330002B06D0064A7B680021BE
:10016C0042F82310012300E0002318461037BD4647
:10017C0080BD00BF9400002080B582B000AF00238A
:10018C007B607AE0414A7B6852F8232040497B68C7
:10019C0041F823203F4A7B6852F823203B497B6877
:1001AC0041F823203C4A7B6852F823203B497B686A
:1001BC0031F813301946104601F018FD0346194664
:1001CC00344A7B6842F82310324A7B6852F8232069
:1001DC002E497B6851F823309A424BD12B4A7B68CD
:1001EC0052F823202A497B6851F823309A4241D196
:1001FC002B4A7B6852F8232025497B6851F8233021
:10020C009A4218D0224A7B6852F8232024497B68F2
:10021C0041F82320224A7B6852F82330002B29D145
:10022C00204A7B68642142F823101F4A7B68012115
:10023C0042F823101EE01B4A7B6852F823305A1EEA
:10024C0018497B6841F82320164A7B6852F8233002
:10025C00002B0FD1134A7B68642142F82310104AFB
:10026C007B6852F82330002B04D10F4A7B680121A4
:10027C0042F823107B6801337B607B68022B81DDA5
:10028C0000BF00BF0837BD4680BD00BF0C0000207A
:10029C0018000020000000203C0000204800002036
:1002AC0024000020300000209400002080B500AF16
:1002BC00954B1B68042B00F2968101A252F823F097
:1002CC00E102000811030008BB0300086D040008DC
:1002DC00350500088C4B01221A60FA21002001F030
:1002EC007BF84FF47A71012001F076F8874B1B688C
:1002FC00874A1360874B1B68874A1360874B002221
:10030C001A6070E1002001F08FF80346002B23D017
:10031C00814B1B687E4A12681146184601F01AF888
:10032C00794B1B68184600F02FFC20217C4801F00B
:10033C008CFC7A4B1B685A1C78490A60184600F0F2
:10034C007DFF764B1B68032B02DD744B00221A6079
:10035C00FA21002001F040F8012001F065F8034675
:10036C00002B0ED06C4B1B68013B6B4A1360684B27
:10037C001B68013B664A13604FF47A71012001F04F
:10038C002BF8654B1B68002B06DC5F4B02221A60B6
:10039C00644B1B68604A13600020FFF7D1FE0346D4
:1003AC00012B40F01981584B05221A6014E10020F2
:1003BC0001F03AF80346002B23D0574B1B68544AE4
:1003CC0012681146184600F0C5FF4F4B1B681846C3
:1003DC0000F0DAFB2021524801F037FC4F4B1B6830
:1003EC005A1C4E490A60184600F028FF4B4B1B68FC
:1003FC00032B02DD494B00221A60FA21002000F089
:10040C00EBFF012001F010F80346002B0ED0424BFD
:10041C001B68013B404A13603D4B1B68013B3C4A47
:10042C0013604FF47A71012000F0D6FF3A4B1B6831
:10043C00002B0ADC344B03221A60364B1B68344AFF
:10044C001360324B1B68344A13600020FFF778FEB0
:10045C000346012B40F0C2802B4B05221A60BDE0F5
:10046C00002000F0E1FF0346002B23D02A4B1B6831
:10047C00274A12681146184600F06CFF224B1B6885
:10048C00184600F081FB2021254801F0DEFB234BB0
:10049C001B685A1C21490A60184600F0CFFE1F4BFE
:1004AC001B68032B02DD1D4B00221A60FA21002071
:1004BC0000F092FF012000F0B7FF0346002B0ED096
:1004CC00154B1B68013B144A1360114B1B68013B15
:1004DC000F4A13604FF47A71012000F07DFF0C4B32
:1004EC001B68002B06DC084B04221A600D4B1B68A2
:1004FC00074A13600020FFF723FE0346012B6FD140
:10050C00014B05221A606BE0B8000020600000204F
:10051C00B400002068000020B0000020A0000020E3
:10052C000008014064000020002000F07DFF03461D
:10053C00002B23D02D4B1B682D4A126811461846F0
:10054C0000F008FF2B4B1B68184600F01DFB202108
:10055C00294801F07AFB294B1B685A1C27490A6071
:10056C00184600F06BFE254B1B68032B02DD234B5A
:10057C0000221A60FA21002000F02EFF012000F06A
:10058C0053FF0346002B0ED0184B1B68013B174A38
:10059C001360174B1B68013B154A13604FF47A71BB
:1005AC00012000F019FF124B1B68002B0ADC114BC9
:1005BC0001221A60124B1B680D4A1360114B1B6809
:1005CC000A4A13600020FFF7BBFD0346012B09D13B
:1005DC00084B05221A6005E000BF04E000BF02E0F2
:1005EC0000BF00E000BF00BF80BD00BFB000002016
:1005FC00B4000020B800002000080140A00000203A
:10060C00600000206800002080B500AF854B1B689F
:10061C000B2B00F01F810B2B00F3A681092B02D0B2
:10062C000A2B7FD0A0E1804B1B68804A82FB03120F
:10063C009210DB17D31A7E4A13607B4B19687B4BE5
:10064C0083FB01239A10CB17D21A13469B00134439
:10065C005B00CA1A764B5A60754B00229A60744B39
:10066C000122DA60002000F0DFFE0346002B1BD0D5
:10067C006C4B1B68184600F087FA20216D4801F07E
:10068C00E4FA6D4B1B685A1C6B490A60184600F063
:10069C00D5FD694B1B68032B02DD674B00221A60EA
:1006AC00FA21002000F098FE0220FFF749FD0346D6
:1006BC00012B17D15C4B1B68322B00F34A815A4B30
:1006CC001B685E4A13605D4B1A685D4B1B68D31A3E
:1006DC005C4A1360594B1B685B4A1360594B1B688F
:1006EC005A4A13600020FFF72BFD0346012B04D15F
:1006FC004C4B0A221A6000F0C1FB0120FFF720FDD1
:10070C000346012B40F02781474B1B680133464AB7
:10071C001360454B1B68632B40F31D81424B002239
:10072C001A6018E14A4B1B68404A82FB0312921074
:10073C00DB17D31A3E4A1360454B19683B4B83FBBE
:10074C0001239A10CB17D21A13469B0013445B005B
:10075C00CA1A374B5A60364B00229A60344B02222D
:10076C00DA60002000F060FE0346002B1BD02D4BFE
:10077C001B68184600F008FA20212E4801F065FA93
:10078C002D4B1B685A1C2C490A60184600F056FD6C
:10079C00294B1B68032B02DD274B00221A60FA2120
:1007AC00002000F019FE0220FFF7CAFC0346012BC3
:1007BC0017D1274B1B68312B00F3CF80244B1B68C0
:1007CC00204A13601F4B1A681D4B1B6813441B4AAD
:1007DC0013601A4B1B681C4A13601A4B1B681B4A8C
:1007EC0013600020FFF7ACFC0346012B04D10D4B2A
:1007FC000B221A6000F042FB0120FFF7A1FC03461C
:10080C00012B40F0AC80124B1B680133104A136073
:10081C000F4B1B68632B40F3A2800D4B00221A6018
:10082C009DE000BFB8000020A4000020676666664B
:10083C005000002000080140A000002060000020B3
:10084C006400002068000020B4000020B0000020EC
:10085C00AC000020454B1B68454A82FB03129210EA
:10086C00DB17D31A434A1360404B1968404B83FB88
:10087C0001239A10CB17D21A13469B0013445B002A
:10088C00CA1A3C4B5A603B4B00229A60394B0322EC
:10089C00DA60002000F0C8FD0346002B1BD0364B5D
:1008AC001B68184600F070F92021344801F0CDF98E
:1008BC00334B1B685A1C32490A60184600F0BEFCC8
:1008CC002F4B1B68032B02DD2D4B00221A60FA21E3
:1008DC00002000F081FD0220FFF732FC0346012BC3
:1008EC0019D1254B00221A60204B1B68052B38DCD4
:1008FC001E4B1B68234A1360234B1A68214B1B6841
:10090C001344224A1360214B1B68214A13601E4B6F
:10091C001B68204A13600020FFF712FC0346012BD2
:10092C0004D1154B01221A6000F0A8FA0120FFF740
:10093C0007FC0346012B16D10C4B1B6801330B4AE9
:10094C0013600A4B1B68632B0DDD084B00221A60E9
:10095C0009E000BF08E000BF06E000BF04E000BFF4
:10096C0002E000BF00E000BF00BF80BDA800002077
:10097C006766666650000020B80000200008014041
:10098C00A00000206400002068000020600000200F
:10099C00B4000020B000002080B500AF774B1B687E
:1009AC00053B032B00F2E88001A252F823F000BFB4
:1009BC00CD0900081B0A0008A30A0008EF0A00086A
:1009CC00002000F031FD0346002B03D020216C48A1
:1009DC0001F03BF900F016FC684B1B68184600F060
:1009EC00D3F80120FFF7ACFB0346012B02D1634B7C
:1009FC0006221A600020FFF7A3FB0346012B40F0F0
:100A0C00B48000F03BFA5D4B09221A60ADE0002087
:100A1C0000F00AFD0346002B03D02021584801F0BA
:100A2C0014F900F0EFFB554B1B68184600F0ACF8BE
:100A3C00544B1B68002B07D14FF4FA61022000F0D5
:100A4C00CBFC504B01221A60022000F0EDFC034657
:100A5C00002B05D0494B07221A604A4B00221A6022
:100A6C000120FFF76DFB0346012B05D1434B0722F9
:100A7C001A60444B00221A600020FFF761FB03460A
:100A8C00012B74D13F4B00221A6000F0F7F93B4B5D
:100A9C0009221A606BE0002000F0C6FC0346002B14
:100AAC0003D02021364801F0D0F800F0ABFB334BDB
:100ABC001B68184600F068F80120FFF741FB03465D
:100ACC00012B02D12D4B08221A600020FFF738FBB6
:100ADC000346012B4DD100F0D1F9284B09221A60A5
:100AEC0047E0002000F0A0FC0346002B03D020219F
:100AFC00234801F0AAF800F085FB204B1B68184630
:100B0C0000F042F81F4B1B68002B07D14FF4FA6121
:100B1C00022000F061FC1B4B01221A60022000F045
:100B2C0083FC0346002B05D0144B05221A60154B91
:100B3C0000221A600120FFF703FB0346012B05D1AD
:100B4C00104B00221A600D4B05221A600020FFF793
:100B5C00F7FA0346012B0ED10A4B00221A6000F063
:100B6C008DF9064B09221A6005E000BF04E000BFB6
:100B7C0002E000BF00E000BF00BF80BDB800002055
:100B8C0000080140BC00002080B582B000AF786046
:100B9C007B680B2B00F2688101A252F823F000BF96
:100BAC00DD0B0008E30B00082D0C0008770C000887
:100BBC00C10C00080B0D0008550D00089F0D000816
:100BCC00E90D0008330E0008490E00085F0E0008FE
:100BDC0001237B604BE100224FF40041A64801F059
:100BEC001CF800224FF48041A34801F016F80122B2
:100BFC004FF40051A04801F010F801224FF480513D
:100C0C009D4801F00AF800224FF400619A4801F067
:100C1C0004F800224FF48061974800F0FEFF26E1B3
:100C2C0000224FF40041944800F0F7FF01224FF4EA
:100C3C008041914800F0F1FF00224FF400518E48A2
:100C4C0000F0EBFF01224FF480518B4800F0E5FFE0
:100C5C0000224FF40061884800F0DFFF00224FF4BF
:100C6C008061854800F0D9FF01E101224FF4004179
:100C7C00814800F0D2FF00224FF480417E4800F002
:100C8C00CCFF00224FF400517B4800F0C6FF00223D
:100C9C004FF48051784800F0C0FF00224FF40061FF
:100CAC00754800F0BAFF01224FF48061724800F0E1
:100CBC00B4FFDCE001224FF400416F4800F0ADFFBF
:100CCC0000224FF480416C4800F0A7FF00224FF443
:100CDC000051694800F0A1FF00224FF48051664892
:100CEC0000F09BFF01224FF40061634800F095FF78
:100CFC0000224FF48061604800F08FFFB7E00022C3
:100D0C004FF400415C4800F088FF00224FF4804112
:100D1C00594800F082FF01224FF40051564800F070
:100D2C007CFF01224FF48051534800F076FF0022E3
:100D3C004FF40061504800F070FF00224FF48061C6
:100D4C004D4800F06AFF92E000224FF400414A48FF
:100D5C0000F063FF01224FF48041474800F05DFF33
:100D6C0000224FF40051444800F057FF01224FF489
:100D7C008051414800F051FF00224FF400613E4881
:100D8C0000F04BFF00224FF480613B4800F045FF20
:100D9C006DE001224FF40041374800F03EFF002285
:100DAC004FF48041344800F038FF00224FF40051DA
:100DBC00314800F032FF00224FF480512E4800F0F1
:100DCC002CFF00224FF400612B4800F026FF01227B
:100DDC004FF48061284800F020FF48E001224FF4D6
:100DEC000041254800F019FF00224FF480412248B1
:100DFC0000F013FF00224FF400511F4800F00DFFCC
:100E0C0000224FF480511C4800F007FF01224FF4E0
:100E1C000061194800F001FF00224FF48061164870
:100E2C0000F0FBFE23E04FF40041134800F00DFFEF
:100E3C004FF48051104800F008FF18E04FF40051B7
:100E4C000D4800F002FF4FF480610B4800F0FDFEEE
:100E5C000DE04FF48041084800F0F7FE4FF40061BC
:100E6C00054800F0F2FE02E000237B6000BF00BFEB
:100E7C000837BD4680BD00BF000C014080B500AFF7
:100E8C0000224FF40041114800F0C7FE00224FF43D
:100E9C0080510E4800F0C1FE00224FF480410B48F7
:100EAC0000F0BBFE00224FF40061084800F0B5FED4
:100EBC0000224FF40051054800F0AFFE00224FF421
:100ECC008061024800F0A9FE00BF80BD000C01400B
:100EDC0080B500AF00F0A0FB00F02AF800F0B0F8ED
:100EEC0000F062F8114801F0F5FA0321002000F03F
:100EFC0073FA0521012000F06FFA4FF4FA61022019
:100F0C0000F06AFA1121052000F066FA1321062080
:100F1C0000F062FA0221072000F05EFAFFF7C6F932
:100F2C00FFF73AFDFFF770FBF8E700BFC0000020A9
:100F3C0080B590B000AF07F11803282200211846A5
:100F4C0001F078FE3B1D00221A605A609A60DA604C
:100F5C001A610223BB610123BB621023FB620023D5
:100F6C007B6307F11803184600F088FE0346002B3C
:100F7C0001D000F02BFA0F237B600023BB60002311
:100F8C00FB6000233B6100237B613B1D0021184665
:100F9C0001F0F4F80346002B01D000F017FA00BF63
:100FAC004037BD4680BD000080B586B000AF07F16C
:100FBC00080300221A605A609A60DA603B460022ED
:100FCC001A605A601D4B4FF080421A601B4B41F661
:100FDC003F725A60194B00229A60184B0922DA6052
:100FEC00164B00221A61154B00229A61134801F02E
:100FFC0021FA0346002B01D000F0E8F94FF480539E
:10100C00BB6007F1080319460C4801F09FFB03462F
:10101C00002B01D000F0DAF900233B6000237B6049
:10102C003B461946054801F077FD0346002B01D0DD
:10103C0000F0CCF900BF1837BD4680BDC0000020C1
:10104C0080B588B000AF07F1100300221A605A6017
:10105C009A60DA602F4B9B692E4A43F01003936120
:10106C002C4B9B6903F01003FB60FB68294B9B69BD
:10107C00284A43F004039361264B9B6903F0040355
:10108C00BB60BB68234B9B69224A43F00803936106
:10109C00204B9B6903F008037B607B6800224FF4B4
:1010AC007C711D4800F0B9FD00224FF67F411B48B2
:1010BC0000F0B3FD4FF460433B6100237B610123DF
:1010CC00BB6107F110031946154800F015FC4FF4ED
:1010DC007C733B6101237B610023BB610223FB61B9
:1010EC0007F1100319460C4800F006FC4FF67F433D
:1010FC003B6101237B610023BB610223FB6107F190
:10110C0010031946054800F0F7FB00BF2037BD4619
:10111C0080BD00BF0010024000080140000C0140DF
:10112C000010014080B582B000AF786000F096F9F5
:10113C00FFF722F800BF0837BD4680BD80B584B0EC
:10114C0000AF78607B68002B53DB7B68092B50DC8D
:10115C002A4A7B6813441B78FB73FB7B03F0010367
:10116C00DBB21A460121264800F057FDFB7B5B08D9
:10117C00DBB203F00103DBB21A460221204800F077
:10118C004CFDFB7B9B08DBB203F00103DBB21A4680
:10119C0004211B4800F041FDFB7BDB08DBB203F0B4
:1011AC000103DBB21A460821154800F036FDFB7B23
:1011BC001B09DBB203F00103DBB21A461021104805
:1011CC0000F02BFDFB7B5B09DBB203F00103DBB210
:1011DC001A4620210A4800F020FDFB7B9B09DBB25C
:1011EC0003F00103DBB21A464021054800F015FD5F
:1011FC0000E000BF1037BD4680BD00BF682C000862
:10120C00000C014080B500AF002240210A4800F0DC
:10121C0004FD00228021084800F0FFFC00224FF45E
:10122C008071054800F0F9FC00224FF4007102486F
:10123C0000F0F3FC00BF80BD0008014080B582B017
:10124C0000AF78607B68032B7AD801A252F823F0A8
:10125C006D120008A5120008DD1200081513000815
:10126C003A4B1B681846FFF769FF012240213848AA
:10127C0000F0D3FC00228021354800F0CEFC002287
:10128C004FF48071324800F0C8FC00224FF400711A
:10129C002F4800F0C2FC54E02C4B5B681846FFF75B
:1012AC004DFF002240212A4800F0B7FC012280218A
:1012BC00274800F0B2FC00224FF48071244800F063
:1012CC00ACFC00224FF40071214800F0A6FC38E081
:1012DC001E4B9B681846FFF731FF002240211C482B
:1012EC0000F09BFC00228021194800F096FC0122A2
:1012FC004FF48071164800F090FC00224FF40071FE
:10130C00134800F08AFC1CE0104BDB681846FFF712
:10131C0015FF002240210E4800F07FFC00228021A6
:10132C000B4800F07AFC00224FF48071084800F062
:10133C0074FC01224FF40071054800F06EFC00E0D3
:10134C0000BF00BF0837BD4680BD00BF5000002065
:10135C000008014080B483B000AF786039607B68CE
:10136C00184A82FB03129210DB17D31A164A136029
:10137C007968144B83FB01239A10CB17D21A1346AE
:10138C009B0013445B00CA1A0F4B5A603B680D4A12
:10139C0082FB03129210DB17D31A0B4A9360396845
:1013AC00084B83FB01239A10CB17D21A13469B00D0
:1013BC0013445B00CA1A044BDA6000BF0C37BD46FD
:1013CC0080BC7047676666665000002080B400AF32
:1013DC0072B600BFFEE7000080B483B000AF786047
:1013EC0039607B68002B13DB7B68132B10DC3B68AC
:1013FC000A4A82FB03129210DB17D21A08497B6847
:10140C0041F82320074A7B68002142F8231000E0B2
:10141C0000BF0C37BD4680BC704700BF6766666670
:10142C00080100205801002080B483B000AF786020
:10143C00094A7B6852F82330012B06D1064A7B6897
:10144C00002142F82310012300E0002318460C373A
:10145C00BD4680BC704700BF5801002080B483B0EB
:10146C0000AF00237B6016E00F4A7B6852F82330F4
:10147C005A1E0D497B6841F823200B4A7B6852F8B1
:10148C002330002B04DC094A7B68012142F823102D
:10149C007B6801337B607B68132BE5DD00BF00BFED
:1014AC000C37BD4680BC7047080100205801002055
:1014BC0080B485B000AF154B9B69144A43F001030F
:1014CC009361124B9B6903F00103BB60BB680F4B2C
:1014DC00DB690E4A43F08053D3610C4BDB6903F09C
:1014EC0080537B607B680A4B5B68FB60FB6823F076
:1014FC00E063FB60FB6843F08063FB60044AFB68BD
:10150C00536000BF1437BD4680BC704700100240CA
:10151C000000014080B584B000AF78607B681B6828
:10152C00B3F1804F13D10C4BDB690B4A43F0010331
:10153C00D361094BDB6903F00103FB60FB680022FC
:10154C0000211C2000F0A1F91C2000F0BAF900BF0A
:10155C001037BD4680BD00BF0010024080B400AF04
:10156C00FEE780B400AFFEE780B400AFFEE780B4C6
:10157C0000AFFEE780B400AFFEE780B400AF00BF61
:10158C00BD4680BC704780B400AF00BFBD4680BC78
:10159C00704780B400AF00BFBD4680BC704780B5BB
:1015AC0000AF00F07FF800BF80BD000080B500AF39
:1015BC00024800F0DBFF00BF80BD00BFC000002070
:1015CC0080B400AF00BFBD4680BC7047FFF7F8FF8A
:1015DC000B480C490C4A002302E0D458C450043385
:1015EC00C4188C42F9D3094A094C002301E013605A
:1015FC000432A242FBD301F0F9FAFFF769FC704701
:10160C000000002078000020A02C000878000020AA
:10161C00AC010020FEE7000080B500AF084B1B6852
:10162C00074A43F010031360032000F023F90F2046
:10163C0000F008F8FFF73CFF0023184680BD00BF00
:10164C000020024080B582B000AF7860124B1A685F
:10165C00124B1B7819464FF47A73B3FBF1F3B2FBC0
:10166C00F3F3184600F03BF90346002B01D001239D
:10167C000EE07B680F2B0AD8002279684FF0FF3000
:10168C0000F003F9064A7B681360002300E0012395
:10169C0018460837BD4680BD6C0000207400002041
:1016AC007000002080B400AF054B1B781A46054B28
:1016BC001B681344034A136000BFBD4680BC7047CF
:1016CC0074000020A801002080B400AF024B1B68FE
:1016DC001846BD4680BC7047A801002080B485B078
:1016EC0000AF78607B6803F00703FB600C4BDB6892
:1016FC00BB60BA684FF6FF031340BB60FB681A026D
:10170C00BB68134343F0BF6343F40033BB60044A2C
:10171C00BB68D36000BF1437BD4680BC704700BFA8
:10172C0000ED00E080B400AF044BDB681B0A03F053
:10173C0007031846BD4680BC704700BF00ED00E0B3
:10174C0080B483B000AF0346FB7197F90730002BD0
:10175C000BDBFB7903F01F02064997F907305B0995
:10176C00012000FA02F241F8232000BF0C37BD46DD
:10177C0080BC704700E100E080B483B000AF03464A
:10178C003960FB7197F90730002B0ADB3B68DAB242
:10179C000C4997F907301201D2B20B4483F800239D
:1017AC000AE03B68DAB20849FB7903F00F03043B0B
:1017BC001201D2B20B441A7600BF0C37BD4680BC66
:1017CC00704700BF00E100E000ED00E080B489B09C
:1017DC0000AFF860B9607A60FB6803F00703FB6147
:1017EC00FB69C3F10703042B28BF0423BB61FB690E
:1017FC000433062B02D9FB69033B00E000237B6119
:10180C004FF0FF32BB6902FA03F3DA43BB681A40AC
:10181C007B699A404FF0FF317B6901FA03F3D9439E
:10182C007B680B40134318462437BD4680BC704779
:10183C0080B582B000AF78607B68013BB3F1807FEC
:10184C0001D301230FE00A4A7B68013B53600F214F
:10185C004FF0FF30FFF790FF054B00229A60044BCE
:10186C0007221A60002318460837BD4680BD00BF0A
:10187C0010E000E080B582B000AF78607868FFF7C8
:10188C002DFF00BF0837BD4680BD80B586B000AFC8
:10189C000346B9607A60FB7300237B61FFF742FF5C
:1018AC0078617A68B9687869FFF790FF024697F912
:1018BC000F3011461846FFF75FFF00BF1837BD46C3
:1018CC0080BD80B582B000AF0346FB7197F907303D
:1018DC001846FFF735FF00BF0837BD4680BD80B501
:1018EC0082B000AF78607868FFF7A2FF0346184615
:1018FC000837BD4680BD000080B48BB000AF786067
:10190C00396000237B6200233B6248E101227B6A41
:10191C0002FA03F3FB613B681B68FA691340BB6175
:10192C00BA69FB699A4240F037813B685B68A34A0D
:10193C0093425ED0A14A934275D8A14A934258D0A3
:10194C009F4A93426FD89F4A934252D09D4A9342EA
:10195C0069D89D4A93424CD09B4A934263D89B4A88
:10196C00934246D0994A93425DD8122B2AD8122B17
:10197C0059D801A252F823F0FF190008D919000810
:10198C00EB1900082D1A0008331A0008331A000846
:10199C00331A0008331A0008331A0008331A0008E7
:1019AC00331A0008331A0008331A0008331A0008D7
:1019BC00331A0008331A0008331A0008E11900081A
:1019CC00F5190008824A934213D02CE03B68DB687F
:1019DC003B6229E03B68DB6804333B6224E03B68F4
:1019EC00DB6808333B621FE03B68DB680C333B620F
:1019FC001AE03B689B68002B02D104233B6213E086
:101A0C003B689B68012B05D108233B627B68FA6914
:101A1C001A6109E008233B627B68FA695A6103E0AA
:101A2C0000233B6200E000BFBB69FF2B01D87B6841
:101A3C0001E07B6804337B61BB69FF2B02D87B6AB6
:101A4C009B0002E07B6A083B9B003B617B691A6848
:101A5C000F213B6901FA03F3DB431A40396A3B69F6
:101A6C0001FA03F31A437B691A603B685B6803F065
:101A7C008053002B00F09080564B9B69554A43F0E5
:101A8C0001039361534B9B6903F00103BB60BB687B
:101A9C00514A7B6A9B08023352F82330FB607B6A05
:101AAC0003F003039B000F2202FA03F3DB43FA68F3
:101ABC001340FB607B68494A93420DD07B68484ACF
:101ACC00934207D07B68474A934201D1022304E03A
:101ADC00032302E0012300E000237A6A02F00302F0
:101AEC0092009340FA681343FB603B497B6A9B0866
:101AFC000233FA6841F823203B685B6803F48013D7
:101B0C00002B06D0384B9A683749BB6913438B605E
:101B1C0006E0354B9A68BB69DB43334913408B6055
:101B2C003B685B6803F40013002B06D02E4BDA687D
:101B3C002D49BB691343CB6006E02B4BDA68BB69BC
:101B4C00DB4329491340CB603B685B6803F40033EB
:101B5C00002B06D0244B5A682349BB6913434B60B6
:101B6C0006E0214B5A68BB69DB431F4913404B60AD
:101B7C003B685B6803F48033002B06D01A4B1A6861
:101B8C001949BB6913430B6006E0174B1A68BB6914
:101B9C00DB43154913400B607B6A01337B623B6866
:101BAC001A687B6A22FA03F3002B7FF4AFAE00BFF6
:101BBC0000BF2C37BD4680BC704700BF0000321000
:101BCC000000311000002210000021100000121043
:101BDC0000001110001002400000014000080140FC
:101BEC00000C0140001001400004014080B485B09D
:101BFC0000AF78600B467B807B689A687B881340CB
:101C0C00002B02D00123FB7301E00023FB73FB7B51
:101C1C0018461437BD4680BC704780B483B000AF03
:101C2C0078600B467B8013467B707B78002B03D04F
:101C3C007A887B681A6103E07B881A047B681A61D6
:101C4C0000BF0C37BD4680BC704780B485B000AF78
:101C5C0078600B467B807B68DB68FB607A88FB686E
:101C6C0013401A04FB68D9437B880B401A437B68EA
:101C7C001A6100BF1437BD4680BC704780B586B072
:101C8C0000AF78607B68002B01D101236CE27B688C
:101C9C001B6803F00103002B00F08780924B5B68FC
:101CAC0003F00C03042B0CD08F4B5B6803F00C037C
:101CBC00082B12D18C4B5B6803F48033B3F5803F57
:101CCC000BD1894B1B6803F40033002B6CD07B6861
:101CDC005B68002B68D1012346E27B685B68B3F537
:101CEC00803F06D1804B1B687F4A43F480331360DE
:101CFC002EE07B685B68002B0CD17B4B1B687A4A0F
:101D0C0023F480331360784B1B68774A23F48023C9
:101D1C0013601DE07B685B68B3F5A02F0CD1724B90
:101D2C001B68714A43F4802313606F4B1B686E4A27
:101D3C0043F4803313600BE06B4B1B686A4A23F44B
:101D4C0080331360684B1B68674A23F4802313604D
:101D5C007B685B68002B13D0FFF7B6FC386108E09A
:101D6C00FFF7B2FC02463B69D31A642B01D903235B
:101D7C00FAE15D4B1B6803F40033002BF0D014E048
:101D8C00FFF7A2FC386108E0FFF79EFC02463B69B6
:101D9C00D31A642B01D90323E6E1534B1B6803F4DC
:101DAC000033002BF0D100E000BF7B681B6803F010
:101DBC000203002B63D04C4B5B6803F00C03002B2D
:101DCC000BD0494B5B6803F00C03082B1CD1464B22
:101DDC005B6803F48033002B16D1434B1B6803F074
:101DEC000203002B05D07B681B69012B01D001235A
:101DFC00BAE13D4B1B6823F0F8027B685B69DB00A2
:101E0C00394913430B603AE07B681B69002B20D0E7
:101E1C00364B01221A60FFF757FC386108E0FFF7D8
:101E2C0053FC02463B69D31A022B01D903239BE1D5
:101E3C002D4B1B6803F00203002BF0D02A4B1B68C0
:101E4C0023F0F8027B685B69DB00274913430B60C6
:101E5C0015E0264B00221A60FFF736FC386108E0CB
:101E6C00FFF732FC02463B69D31A022B01D903233C
:101E7C007AE11D4B1B6803F00203002BF0D17B6849
:101E8C001B6803F00803002B3AD07B689B69002B7E
:101E9C0019D0174B01221A60FFF716FC386108E0C5
:101EAC00FFF712FC02463B69D31A022B01D903231C
:101EBC005AE10D4B5B6A03F00203002BF0D00120BA
:101ECC0000F09AFA1CE00A4B00221A60FFF7FCFBA8
:101EDC0038610FE0FFF7F8FB02463B69D31A022B7F
:101EEC0008D9032340E100BF001002400000424229
:101EFC00800442429E4B5B6A03F00203002BE9D143
:101F0C007B681B6803F00403002B00F0A680002301
:101F1C00FB75974BDB6903F08053002B0DD1944B71
:101F2C00DB69934A43F08053D361914BDB6903F037
:101F3C008053BB60BB680123FB758E4B1B6803F49D
:101F4C008073002B18D18B4B1B688A4A43F4807327
:101F5C001360FFF7B9FB386108E0FFF7B5FB0246E9
:101F6C003B69D31A642B01D90323FDE0814B1B6819
:101F7C0003F48073002BF0D07B68DB68012B06D157
:101F8C007B4B1B6A7A4A43F0010313622DE07B689A
:101F9C00DB68002B0CD1764B1B6A754A23F00103CE
:101FAC001362734B1B6A724A23F0040313621CE026
:101FBC007B68DB68052B0CD16D4B1B6A6C4A43F0BC
:101FCC00040313626A4B1B6A694A43F001031362F0
:101FDC000BE0674B1B6A664A23F001031362644BE8
:101FEC001B6A634A23F0040313627B68DB68002BD3
:101FFC0015D0FFF769FB38610AE0FFF765FB024675
:10200C003B69D31A41F28832934201D90323ABE0E6
:10201C00574B1B6A03F00203002BEED014E0FFF7C2
:10202C0053FB38610AE0FFF74FFB02463B69D31ABA
:10203C0041F28832934201D9032395E04C4B1B6A41
:10204C0003F00203002BEED1FB7D012B05D1484B95
:10205C00DB69474A23F08053D3617B68DB69002B33
:10206C0000F08180424B5B6803F00C03082B61D0BD
:10207C007B68DB69022B46D13F4B00221A60FFF7CD
:10208C0023FB386108E0FFF71FFB02463B69D31ABC
:10209C00022B01D9032367E0354B1B6803F0007357
:1020AC00002BF0D17B681B6AB3F5803F08D1304B15
:1020BC005B6823F400327B689B682D4913434B60AB
:1020CC002B4B5B6823F474127B68196A7B685B6A20
:1020DC000B43274913434B60274B01221A60FFF730
:1020EC00F3FA386108E0FFF7EFFA02463B69D31ABE
:1020FC00022B01D9032337E01D4B1B6803F000733F
:10210C00002BF0D02FE01C4B00221A60FFF7DCFAFA
:10211C00386108E0FFF7D8FA02463B69D31A022B64
:10212C0001D9032320E0124B1B6803F00073002B32
:10213C00F0D118E07B68DB69012B01D1012313E09E
:10214C000B4B5B68FB60FB6803F480327B681B6A9B
:10215C009A4206D1FB6803F470127B685B6A9A4260
:10216C0001D0012300E0002318461837BD4680BD7E
:10217C0000100240007000406000424280B584B004
:10218C0000AF786039607B68002B01D10123D0E06F
:10219C006A4B1B6803F007033A689A4210D9674BE5
:1021AC001B6823F0070265493B6813430B60634BC4
:1021BC001B6803F007033A689A4201D00123B8E088
:1021CC007B681B6803F00203002B20D07B681B6824
:1021DC0003F00403002B05D0594B5B68584A43F4B9
:1021EC00E06353607B681B6803F00803002B05D089
:1021FC00534B5B68524A43F460535360504B5B68DB
:10220C0023F0F0027B689B684D4913434B607B685D
:10221C001B6803F00103002B40D07B685B68012B2B
:10222C0007D1474B1B6803F40033002B15D1012356
:10223C007FE07B685B68022B07D1414B1B6803F086
:10224C000073002B09D1012373E03D4B1B6803F095
:10225C000203002B01D101236BE0394B5B6823F0A7
:10226C0003027B685B68364913434B60FFF72CFA1B
:10227C00F8600AE0FFF728FA0246FB68D31A41F22D
:10228C008832934201D9032353E02D4B5B6803F052
:10229C000C027B685B689B009A42EBD1274B1B6856
:1022AC0003F007033A689A4210D2244B1B6823F0C0
:1022BC00070222493B6813430B60204B1B6803F059
:1022CC0007033A689A4201D0012332E07B681B680D
:1022DC0003F00403002B08D0194B5B6823F4E06275
:1022EC007B68DB68164913434B607B681B6803F003
:1022FC000803002B09D0124B5B6823F460527B68F7
:10230C001B69DB000E4913434B6000F021F80246B9
:10231C000B4B5B681B0903F00F030A49CB5C22FAD9
:10232C0003F3094A1360094B1B681846FFF78AF937
:10233C00002318461037BD4680BD00BF0020024068
:10234C0000100240742C00086C000020700000206B
:10235C0080B487B000AF0023FB600023BB60002378
:10236C007B6100237B6000233B611E4B5B68FB6041
:10237C00FB6803F00C03042B02D0082B03D027E0DE
:10238C00194B3B6127E0FB689B0C03F00F03174ACA
:10239C00D35C7B60FB6803F48033002B10D0114BB3
:1023AC005B685B0C03F00103114AD35CBB607B6878
:1023BC000D4A02FB03F2BB68B2FBF3F37B6104E052
:1023CC007B680C4A02FB03F37B617B693B6102E097
:1023DC00054B3B6100BF3B6918461C37BD4680BCB2
:1023EC00704700BF0010024000127A00842C0008D5
:1023FC00942C000800093D0080B485B000AF7860D3
:10240C000A4B1B680A4AA2FB03235B0A7A6802FB8D
:10241C0003F3FB6000BFFB685A1EFA60002BF9D176
:10242C0000BF00BF1437BD4680BC70476C00002055
:10243C00D34D621080B582B000AF78607B68002B02
:10244C0001D1012341E07B6893F83D30DBB2002BD6
:10245C0006D17B68002283F83C207868FFF75AF895
:10246C007B68022283F83D207B681A687B68043302
:10247C001946104600F056FA7B68012283F8462074
:10248C007B68012283F83E207B68012283F83F2081
:10249C007B68012283F840207B68012283F841206D
:1024AC007B68012283F842207B68012283F8432059
:1024BC007B68012283F844207B68012283F8452045
:1024CC007B68012283F83D20002318460837BD465F
:1024DC0080BD000080B485B000AF78607B6893F855
:1024EC003D30DBB2012B01D0012335E07B680222A9
:1024FC0083F83D207B681B68DA687B681B6842F0B8
:10250C000102DA607B681B68164A934209D07B682B
:10251C001B68B3F1804F04D07B681B68124A93424E
:10252C0011D17B681B689B6803F00703FB60FB6899
:10253C00062B10D07B681B681A687B681B6842F0FE
:10254C0001021A6007E07B681B681A687B681B68CD
:10255C0042F001021A60002318461437BD4680BCB5
:10256C00704700BF002C01400004004080B584B0CF
:10257C0000AF78607B681B68DB68FB607B681B685E
:10258C001B69BB60BB6803F00203002B20D0FB6807
:10259C0003F00203002B1BD07B681B686FF0020258
:1025AC001A617B6801221A777B681B689B6903F0B0
:1025BC000303002B03D0786800F098F905E07868E5
:1025CC0000F08BF9786800F09AF97B6800221A7792
:1025DC00BB6803F00403002B20D0FB6803F004035A
:1025EC00002B1BD07B681B686FF004021A617B68A0
:1025FC0002221A777B681B689B6903F44073002BDB
:10260C0003D0786800F072F905E0786800F065F99D
:10261C00786800F074F97B6800221A77BB6803F0C5
:10262C000803002B20D0FB6803F00803002B1BD001
:10263C007B681B686FF008021A617B6804221A77AA
:10264C007B681B68DB6903F00303002B03D07868FD
:10265C0000F04CF905E0786800F03FF9786800F07C
:10266C004EF97B6800221A77BB6803F01003002B2D
:10267C0020D0FB6803F01003002B1BD07B681B6879
:10268C006FF010021A617B6808221A777B681B684E
:10269C00DB6903F44073002B03D0786800F026F953
:1026AC0005E0786800F019F9786800F028F97B6883
:1026BC0000221A77BB6803F00103002B0CD0FB68D7
:1026CC0003F00103002B07D07B681B686FF001023D
:1026DC001A617868FEF726FDBB6803F08003002BB7
:1026EC000CD0FB6803F08003002B07D07B681B68C1
:1026FC006FF080021A61786800F06FFABB6803F023
:10270C004003002B0CD0FB6803F04003002B07D0D8
:10271C007B681B686FF040021A61786800F0F8F86B
:10272C00BB6803F02003002B0CD0FB6803F02003E4
:10273C00002B07D07B681B686FF020021A61786849
:10274C0000F042FA00BF1037BD4680BD80B584B0A2
:10275C0000AF786039600023FB737B6893F83C30E2
:10276C00012B01D10223B4E07B68012283F83C20C9
:10277C007B68022283F83D207B681B689B68BB60EA
:10278C00BB6823F07703BB60BB6823F47F43BB605B
:10279C007B681B68BA689A603B681B68B3F5005F7E
:1027AC003ED0B3F5005F00F28780B3F5805F00F098
:1027BC008680B3F5805F7FD8702B1AD0702B7BD8B6
:1027CC00602B50D0602B77D8502B3CD0502B73D82B
:1027DC00402B58D0402B6FD8302B64D0302B6BD87B
:1027EC00202B60D0202B67D8002B5CD0102B5AD01C
:1027FC0062E07B6818683B6899683B685A683B687C
:10280C00DB6800F06AF97B681B689B68BB60BB687F
:10281C0043F07703BB607B681B68BA689A604FE033
:10282C007B6818683B6899683B685A683B68DB684A
:10283C0000F053F97B681B689A687B681B6842F44C
:10284C0080429A603CE07B6818683B6859683B683A
:10285C00DB681A4600F0CAF87B681B6850211846E2
:10286C0000F021F92CE07B6818683B6859683B68DC
:10287C00DB681A4600F0E8F87B681B686021184694
:10288C0000F011F91CE07B6818683B6859683B68DC
:10289C00DB681A4600F0AAF87B681B6840211846D2
:1028AC0000F001F90CE07B681A683B681B6819465C
:1028BC00104600F0F8F803E00123FB7300E000BFC2
:1028CC007B68012283F83D207B68002283F83C2042
:1028DC00FB7B18461037BD4680BD80B483B000AF7B
:1028EC00786000BF0C37BD4680BC704780B483B0A5
:1028FC0000AF786000BF0C37BD4680BC704780B419
:10290C0083B000AF786000BF0C37BD4680BC704709
:10291C0080B483B000AF786000BF0C37BD4680BC7C
:10292C007047000080B485B000AF786039607B6878
:10293C001B68FB607B682B4A934207D07B68B3F122
:10294C00804F03D07B68284A934208D1FB6823F060
:10295C007003FB603B685B68FA681343FB607B6841
:10296C00204A934207D07B68B3F1804F03D07B6839
:10297C001D4A934208D1FB6823F44073FB603B680B
:10298C00DB68FA681343FB60FB6823F080023B684A
:10299C005B691343FB607B68FA681A603B689A6852
:1029AC007B68DA623B681A687B689A627B680D4ABE
:1029BC00934203D13B681A697B681A637B680122D6
:1029CC005A617B681B6903F00103002B05D07B68FF
:1029DC001B6923F001027B681A6100BF1437BD46E6
:1029EC0080BC7047002C01400004004080B487B0CC
:1029FC0000AFF860B9607A60FB681B6A7B61FB68AA
:102A0C001B6A23F00102FB681A62FB689B693B613D
:102A1C003B6923F0F0033B617B681B013A6913436C
:102A2C003B617B6923F00A037B617A69BB681343C2
:102A3C007B61FB683A699A61FB687A691A6200BF2C
:102A4C001C37BD4680BC704780B487B000AFF860BF
:102A5C00B9607A60FB681B6A7B61FB681B6A23F0B8
:102A6C001002FB681A62FB689B693B613B6923F4AB
:102A7C0070433B617B681B033A6913433B617B6981
:102A8C0023F0A0037B61BB681B017A6913437B6154
:102A9C00FB683A699A61FB687A691A6200BF1C3755
:102AAC00BD4680BC704780B485B000AF786039609B
:102ABC007B689B68FB60FB6823F07003FB603A68E3
:102ACC00FB68134343F00703FB607B68FA689A606A
:102ADC0000BF1437BD4680BC704780B487B000AFD0
:102AEC00F860B9607A603B60FB689B687B617B69CE
:102AFC0023F47F437B613B681A027B681A43BB68F3
:102B0C0013437A6913437B61FB687A699A6000BF4F
:102B1C001C37BD4680BC704780B485B000AF786070
:102B2C0039607B6893F83C30012B01D1022341E0E2
:102B3C007B68012283F83C207B68022283F83D20CD
:102B4C007B681B685B68FB607B681B689B68BB6071
:102B5C00FB6823F07003FB603B681B68FA68134347
:102B6C00FB607B681B68FA685A607B681B68144AB8
:102B7C00934209D07B681B68B3F1804F04D07B680B
:102B8C001B68104A93420CD1BB6823F08003BB60D6
:102B9C003B685B68BA681343BB607B681B68BA68A8
:102BAC009A607B68012283F83D207B68002283F8C1
:102BBC003C20002318461437BD4680BC704700BF2C
:102BCC00002C01400004004080B483B000AF78605A
:102BDC0000BF0C37BD4680BC704780B483B000AFDB
:102BEC00786000BF0C37BD4680BC704770B50026BE
:102BFC000C4D0D4C641BA410A64209D100F022F818
:102C0C0000260A4D0A4C641BA410A64205D170BDC7
:102C1C0055F8043B98470136EEE755F8043B9847C6
:102C2C000136F2E7982C0008982C0008982C000824
:102C3C009C2C000803460244934200D1704703F8D1
:102C4C00011BF9E7F8B500BFF8BC08BC9E467047FD
:0C2C5C00F8B500BFF8BC08BC9E467047ED
:102C6800407924301912027800100000000000009A
:102C78000000000001020304060708090203040516
:102C8800060708090A0B0C0D0E0F101001020000B0
:042C980031010008FE
:042C9C000D0100081E
:102CA0000100000001000000010000000100000020
:102CB0000100000001000000010000000100000010
:102CC0000100000001000000010000000100000000
:102CD0006400000064000000640000000010014077
:102CE0000010014000100140002000400080000062
:102CF00001000000020000000300000004000000CA
:102D000005000000020000000300000000127A002D
:082D10001000000001000000AA
:04000005080015D901
:00000001FF
